{
  "contractName": "MyContract",
  "abi": [
    {
      "inputs": [],
      "payable": false,
      "stateMutability": "nonpayable",
      "type": "constructor"
    },
    {
      "constant": true,
      "inputs": [],
      "name": "getGradient",
      "outputs": [
        {
          "internalType": "uint256[]",
          "name": "",
          "type": "uint256[]"
        }
      ],
      "payable": false,
      "stateMutability": "view",
      "type": "function"
    },
    {
      "constant": true,
      "inputs": [],
      "name": "getEncrypted",
      "outputs": [
        {
          "internalType": "string",
          "name": "",
          "type": "string"
        }
      ],
      "payable": false,
      "stateMutability": "view",
      "type": "function"
    },
    {
      "constant": true,
      "inputs": [],
      "name": "getNext",
      "outputs": [
        {
          "internalType": "string",
          "name": "",
          "type": "string"
        }
      ],
      "payable": false,
      "stateMutability": "view",
      "type": "function"
    },
    {
      "constant": true,
      "inputs": [],
      "name": "getNxtRound",
      "outputs": [
        {
          "internalType": "bool",
          "name": "",
          "type": "bool"
        }
      ],
      "payable": false,
      "stateMutability": "view",
      "type": "function"
    },
    {
      "constant": false,
      "inputs": [
        {
          "internalType": "uint256[]",
          "name": "_Gradient",
          "type": "uint256[]"
        },
        {
          "internalType": "string",
          "name": "_Encrypted",
          "type": "string"
        }
      ],
      "name": "set",
      "outputs": [],
      "payable": false,
      "stateMutability": "nonpayable",
      "type": "function"
    },
    {
      "constant": true,
      "inputs": [],
      "name": "getNow",
      "outputs": [
        {
          "internalType": "uint256",
          "name": "",
          "type": "uint256"
        }
      ],
      "payable": false,
      "stateMutability": "view",
      "type": "function"
    },
    {
      "constant": false,
      "inputs": [],
      "name": "checkEnd",
      "outputs": [
        {
          "internalType": "bool",
          "name": "",
          "type": "bool"
        }
      ],
      "payable": false,
      "stateMutability": "nonpayable",
      "type": "function"
    },
    {
      "constant": false,
      "inputs": [
        {
          "internalType": "string",
          "name": "a",
          "type": "string"
        },
        {
          "internalType": "string",
          "name": "b",
          "type": "string"
        }
      ],
      "name": "hashCompare",
      "outputs": [
        {
          "internalType": "bool",
          "name": "",
          "type": "bool"
        }
      ],
      "payable": false,
      "stateMutability": "nonpayable",
      "type": "function"
    },
    {
      "constant": false,
      "inputs": [
        {
          "internalType": "uint256[]",
          "name": "Rand",
          "type": "uint256[]"
        }
      ],
      "name": "setTotalRand",
      "outputs": [
        {
          "internalType": "uint256[]",
          "name": "",
          "type": "uint256[]"
        }
      ],
      "payable": false,
      "stateMutability": "nonpayable",
      "type": "function"
    },
    {
      "constant": false,
      "inputs": [],
      "name": "clear",
      "outputs": [],
      "payable": false,
      "stateMutability": "nonpayable",
      "type": "function"
    }
  ],
  "bytecode": "0x608060405260466000556000546040519080825280602002602001820160405280156200003b5781602001602082028038833980820191505090505b50600390805190602001906200005392919062000452565b50600054604051908082528060200260200182016040528015620000865781602001602082028038833980820191505090505b50600590805190602001906200009e92919062000452565b50600054604051908082528060200260200182016040528015620000d15781602001602082028038833980820191505090505b5060069080519060200190620000e992919062000452565b506000546040519080825280602002602001820160405280156200011c5781602001602082028038833980820191505090505b50600790805190602001906200013492919062000452565b50601460085560056040519080825280602002602001820160405280156200017157816020015b60608152602001906001900390816200015b5790505b50600b908051906020019062000189929190620004a4565b503480156200019757600080fd5b50600180819055506040518060200160405280600060ff168152506003906001620001c49291906200050b565b506040518060200160405280600060ff168152506006906001620001ea9291906200050b565b506040518060200160405280600060ff168152506007906001620002109291906200050b565b506040518060200160405280600060ff168152506005906001620002369291906200050b565b506040518060400160405280600b81526020017f6d79456e63727970746564000000000000000000000000000000000000000000815250600490805190602001906200028492919062000562565b506040518060a001604052806040518060400160405280600181526020017f410000000000000000000000000000000000000000000000000000000000000081525081526020016040518060400160405280600181526020017f420000000000000000000000000000000000000000000000000000000000000081525081526020016040518060400160405280600181526020017f430000000000000000000000000000000000000000000000000000000000000081525081526020016040518060400160405280600181526020017f440000000000000000000000000000000000000000000000000000000000000081525081526020016040518060400160405280600181526020017f4500000000000000000000000000000000000000000000000000000000000000815250815250600b906005620003c7929190620005e9565b506040518060400160405280600481526020017f4e554c4c00000000000000000000000000000000000000000000000000000000815250600a90805190602001906200041592919062000562565b506000600260006101000a81548160ff0219169083151502179055506000600960006101000a81548160ff0219169083151502179055506200077c565b82805482825590600052602060002090810192821562000491579160200282015b828111156200049057825182559160200191906001019062000473565b5b509050620004a0919062000650565b5090565b828054828255906000526020600020908101928215620004f8579160200282015b82811115620004f7578251829080519060200190620004e692919062000678565b5091602001919060010190620004c5565b5b509050620005079190620006ff565b5090565b8280548282559060005260206000209081019282156200054f579160200282015b828111156200054e578251829060ff169055916020019190600101906200052c565b5b5090506200055e919062000650565b5090565b828054600181600116156101000203166002900490600052602060002090601f016020900481019282601f10620005a557805160ff1916838001178555620005d6565b82800160010185558215620005d6579182015b82811115620005d5578251825591602001919060010190620005b8565b5b509050620005e5919062000650565b5090565b8280548282559060005260206000209081019282156200063d579160200282015b828111156200063c5782518290805190602001906200062b92919062000678565b50916020019190600101906200060a565b5b5090506200064c9190620006ff565b5090565b6200067591905b808211156200067157600081600090555060010162000657565b5090565b90565b828054600181600116156101000203166002900490600052602060002090601f016020900481019282601f10620006bb57805160ff1916838001178555620006ec565b82800160010185558215620006ec579182015b82811115620006eb578251825591602001919060010190620006ce565b5b509050620006fb919062000650565b5090565b6200072d91905b808211156200072957600081816200071f919062000730565b5060010162000706565b5090565b90565b50805460018160011615610100020316600290046000825580601f1062000758575062000779565b601f01602090049060005260206000209081019062000778919062000650565b5b50565b610e04806200078c6000396000f3fe608060405234801561001057600080fd5b506004361061009e5760003560e01c80638fc8a5c7116100665780638fc8a5c7146103ae578063bbe4fd5014610518578063bd5ae2bf14610536578063f3638f7814610595578063f980099d146106185761009e565b80631e474d84146100a35780632633745b146101b05780634b084d491461023357806352efea6e146102555780637e8ecf981461025f575b600080fd5b610159600480360360208110156100b957600080fd5b81019080803590602001906401000000008111156100d657600080fd5b8201836020820111156100e857600080fd5b8035906020019184602083028401116401000000008311171561010a57600080fd5b919080806020026020016040519081016040528093929190818152602001838360200280828437600081840152601f19601f82011690508083019250505050505050919291929050505061063a565b6040518080602001828103825283818151815260200191508051906020019060200280838360005b8381101561019c578082015181840152602081019050610181565b505050509050019250505060405180910390f35b6101b8610863565b6040518080602001828103825283818151815260200191508051906020019080838360005b838110156101f85780820151818401526020810190506101dd565b50505050905090810190601f1680156102255780820380516001836020036101000a031916815260200191505b509250505060405180910390f35b61023b610905565b604051808215151515815260200191505060405180910390f35b61025d610944565b005b6103ac6004803603604081101561027557600080fd5b810190808035906020019064010000000081111561029257600080fd5b8201836020820111156102a457600080fd5b803590602001918460208302840111640100000000831117156102c657600080fd5b919080806020026020016040519081016040528093929190818152602001838360200280828437600081840152601f19601f8201169050808301925050505050505091929192908035906020019064010000000081111561032657600080fd5b82018360208201111561033857600080fd5b8035906020019184600183028401116401000000008311171561035a57600080fd5b91908080601f016020809104026020016040519081016040528093929190818152602001838380828437600081840152601f19601f8201169050808301925050505050505091929192905050506109cd565b005b6104fe600480360360408110156103c457600080fd5b81019080803590602001906401000000008111156103e157600080fd5b8201836020820111156103f357600080fd5b8035906020019184600183028401116401000000008311171561041557600080fd5b91908080601f016020809104026020016040519081016040528093929190818152602001838380828437600081840152601f19601f8201169050808301925050505050505091929192908035906020019064010000000081111561047857600080fd5b82018360208201111561048a57600080fd5b803590602001918460018302840111640100000000831117156104ac57600080fd5b91908080601f016020809104026020016040519081016040528093929190818152602001838380828437600081840152601f19601f820116905080830192505050505050509192919290505050610ace565b604051808215151515815260200191505060405180910390f35b610520610ae9565b6040518082815260200191505060405180910390f35b61053e610af3565b6040518080602001828103825283818151815260200191508051906020019060200280838360005b83811015610581578082015181840152602081019050610566565b505050509050019250505060405180910390f35b61059d610b4b565b6040518080602001828103825283818151815260200191508051906020019080838360005b838110156105dd5780820151818401526020810190506105c2565b50505050905090810190601f16801561060a5780820380516001836020036101000a031916815260200191505b509250505060405180910390f35b610620610bed565b604051808215151515815260200191505060405180910390f35b6060610715600a8054600181600116156101000203166002900480601f0160208091040260200160405190810160405280929190818152602001828054600181600116156101000203166002900480156106d55780601f106106aa576101008083540402835291602001916106d5565b820191906000526020600020905b8154815290600101906020018083116106b857829003601f168201915b50505050506040518060400160405280600181526020017f4100000000000000000000000000000000000000000000000000000000000000815250610ace565b1561085d578160079080519060200190610730929190610c04565b5060008090505b60005481101561078a576007818154811061074e57fe5b90600052602060002001546006828154811061076657fe5b90600052602060002001600082825403925050819055508080600101915050610737565b5060008090505b6000548110156107e957600b80549050600682815481106107ae57fe5b9060005260206000200154816107c057fe5b04600582815481106107ce57fe5b90600052602060002001819055508080600101915050610791565b506001600260006101000a81548160ff021916908315150217905550600580548060200260200160405190810160405280929190818152602001828054801561085157602002820191906000526020600020905b81548152602001906001019080831161083d575b5050505050905061085e565b5b919050565b606060048054600181600116156101000203166002900480601f0160208091040260200160405190810160405280929190818152602001828054600181600116156101000203166002900480156108fb5780601f106108d0576101008083540402835291602001916108fb565b820191906000526020600020905b8154815290600101906020018083116108de57829003601f168201915b5050505050905090565b6000600854600154141561092f576001600960006101000a81548160ff0219169083151502179055505b600960009054906101000a900460ff16905090565b6040518060200160405280600060ff168152506006906001610967929190610c51565b506040518060200160405280600060ff16815250600790600161098b929190610c51565b506040518060200160405280600060ff1681525060059060016109af929190610c51565b506000600260006101000a81548160ff021916908315150217905550565b6000548251146109f3576001600960006101000a81548160ff0219169083151502179055505b8160039080519060200190610a09929190610c04565b5060008090505b600054811015610a5f57828181518110610a2657fe5b602002602001015160068281548110610a3b57fe5b90600052602060002001600082825401925050819055508080600101915050610a10565b508060049080519060200190610a76929190610ca3565b50600b6005600160008154809291906001019190505581610a9357fe5b0681548110610a9e57fe5b90600052602060002001600a9080546001816001161561010002031660029004610ac9929190610d23565b505050565b60008180519060200120838051906020012014905092915050565b6000600154905090565b60606003805480602002602001604051908101604052809291908181526020018280548015610b4157602002820191906000526020600020905b815481526020019060010190808311610b2d575b5050505050905090565b6060600a8054600181600116156101000203166002900480601f016020809104026020016040519081016040528092919081815260200182805460018160011615610100020316600290048015610be35780601f10610bb857610100808354040283529160200191610be3565b820191906000526020600020905b815481529060010190602001808311610bc657829003601f168201915b5050505050905090565b6000600260009054906101000a900460ff16905090565b828054828255906000526020600020908101928215610c40579160200282015b82811115610c3f578251825591602001919060010190610c24565b5b509050610c4d9190610daa565b5090565b828054828255906000526020600020908101928215610c92579160200282015b82811115610c91578251829060ff16905591602001919060010190610c71565b5b509050610c9f9190610daa565b5090565b828054600181600116156101000203166002900490600052602060002090601f016020900481019282601f10610ce457805160ff1916838001178555610d12565b82800160010185558215610d12579182015b82811115610d11578251825591602001919060010190610cf6565b5b509050610d1f9190610daa565b5090565b828054600181600116156101000203166002900490600052602060002090601f016020900481019282601f10610d5c5780548555610d99565b82800160010185558215610d9957600052602060002091601f016020900482015b82811115610d98578254825591600101919060010190610d7d565b5b509050610da69190610daa565b5090565b610dcc91905b80821115610dc8576000816000905550600101610db0565b5090565b9056fea265627a7a723158206675fb21b1c5c62cf16e1f17cd586c95a299a5202a5730e402b0625616a0c46c64736f6c63430005100032",
  "source": "pragma solidity >=0.4.22 <0.9.0;\ncontract MyContract {\n    uint mod = 70;\n    uint roundNow;\n    bool nxtRound;\n    uint[] Gradient = new uint[](mod);\n    // w[10][4],v[3][10] in the training model\n\n    string Encrypted;\n    \n    uint[] average = new uint[](mod);\n    uint[] totalGra = new uint[](mod);\n    uint[] totalRand = new uint[](mod);\n    \n    uint totalRound = 20;\n    bool isEnd;\n    \n    string next;\n    string[]  nextList = new string[](5);\n\n    constructor() public {\n        roundNow = 1;\n        Gradient = [0];\n        totalGra = [0];\n        // Gradient with random number\n        totalRand = [0];\n        // Total of random number\n        average = [0];\n\n        Encrypted = \"myEncrypted\"; \n        // To reveive encrypted P\n        nextList = [\"A\",\"B\",\"C\",\"D\",\"E\"];\n        next = \"NULL\";\n        nxtRound = false;\n        isEnd = false;\n    }\n\n\n    function getGradient() public view returns(uint[] memory) {\n        return Gradient;\n    }\n\n    function getEncrypted() public view returns(string memory) {\n        return Encrypted;\n    }\n\n    function getNext() public view returns(string memory) {\n        return next;\n    }\n\n    function getNxtRound() public view returns(bool) {\n        return nxtRound;\n    }\n\n    function set(uint[] memory _Gradient, string memory _Encrypted) public {\n        if(_Gradient.length != mod) {\n            isEnd = true;\n            // Wrong number of gradient\n        }\n\n        Gradient = _Gradient;\n        for(uint i = 0; i < mod; i++) {\n            totalGra[i] += _Gradient[i];\n        }\n\n        Encrypted = _Encrypted;\n        next = nextList[roundNow++ % 5];\n    }\n\n    function getNow() public view returns (uint) {\n        return roundNow;\n    }\n\n    function checkEnd() public returns (bool) {\n        if(roundNow == totalRound)\n            isEnd = true;\n        return isEnd;\n    }\n\n    function hashCompare(string memory a, string memory b) public returns (bool) {\n        return keccak256(bytes(a)) == keccak256(bytes(b));\n    }\n    // To judge if a == b\n\n    function setTotalRand(uint[] memory Rand) public returns (uint[] memory) {\n        if(hashCompare(next, \"A\")) {\n            totalRand = Rand;\n            for(uint i = 0; i < mod; i++) {\n                totalGra[i] -= totalRand[i];\n                // calc the real Gradient\n            } \n            for(uint i = 0; i< mod; i++) {\n                average[i] = totalGra[i] / nextList.length;\n            }    \n                nxtRound = true;\n                return average;\n        }\n    }\n\n    function clear() public{\n        totalGra = [0];\n        totalRand = [0];\n        average = [0];\n        nxtRound = false;\n    }\n}",
  "sourcePath": "/home/xiabee/Desktop/Final-Architecture/MyContract/contracts/MyContract.sol",
  "compiler": {
    "name": "solc",
    "version": "0.5.16+commit.9c3226ce.Emscripten.clang"
  },
  "schemaVersion": "3.4.1",
  "updatedAt": "2021-08-24T11:22:27.081Z",
  "networkType": "ethereum",
  "devdoc": {
    "methods": {}
  },
  "userdoc": {
    "methods": {}
  }
}