{
  "contractName": "MyContract",
  "abi": [
    {
      "inputs": [],
      "payable": false,
      "stateMutability": "nonpayable",
      "type": "constructor"
    },
    {
      "constant": true,
      "inputs": [],
      "name": "getUser",
      "outputs": [
        {
          "internalType": "string",
          "name": "",
          "type": "string"
        }
      ],
      "payable": false,
      "stateMutability": "view",
      "type": "function"
    },
    {
      "constant": true,
      "inputs": [],
      "name": "getProof",
      "outputs": [
        {
          "internalType": "string",
          "name": "",
          "type": "string"
        }
      ],
      "payable": false,
      "stateMutability": "view",
      "type": "function"
    },
    {
      "constant": true,
      "inputs": [],
      "name": "getNext",
      "outputs": [
        {
          "internalType": "string",
          "name": "",
          "type": "string"
        }
      ],
      "payable": false,
      "stateMutability": "view",
      "type": "function"
    },
    {
      "constant": false,
      "inputs": [
        {
          "internalType": "string",
          "name": "_username",
          "type": "string"
        },
        {
          "internalType": "string",
          "name": "_proof",
          "type": "string"
        }
      ],
      "name": "set",
      "outputs": [],
      "payable": false,
      "stateMutability": "nonpayable",
      "type": "function"
    }
  ],
  "bytecode": "0x6080604052600160005560056040519080825280602002602001820160405280156200004057816020015b60608152602001906001900390816200002a5790505b5060049080519060200190620000589291906200029a565b503480156200006657600080fd5b506040518060400160405280600481526020017f757365720000000000000000000000000000000000000000000000000000000081525060019080519060200190620000b492919062000301565b506040518060400160405280600781526020017f6d7950726f6f6600000000000000000000000000000000000000000000000000815250600290805190602001906200010292919062000301565b506040518060400160405280600181526020017f4100000000000000000000000000000000000000000000000000000000000000815250600390805190602001906200015092919062000301565b506040518060a001604052806040518060400160405280600181526020017f410000000000000000000000000000000000000000000000000000000000000081525081526020016040518060400160405280600181526020017f420000000000000000000000000000000000000000000000000000000000000081525081526020016040518060400160405280600181526020017f430000000000000000000000000000000000000000000000000000000000000081525081526020016040518060400160405280600181526020017f440000000000000000000000000000000000000000000000000000000000000081525081526020016040518060400160405280600181526020017f450000000000000000000000000000000000000000000000000000000000000081525081525060049060056200029392919062000388565b506200051b565b828054828255906000526020600020908101928215620002ee579160200282015b82811115620002ed578251829080519060200190620002dc929190620003ef565b5091602001919060010190620002bb565b5b509050620002fd919062000476565b5090565b828054600181600116156101000203166002900490600052602060002090601f016020900481019282601f106200034457805160ff191683800117855562000375565b8280016001018555821562000375579182015b828111156200037457825182559160200191906001019062000357565b5b509050620003849190620004a7565b5090565b828054828255906000526020600020908101928215620003dc579160200282015b82811115620003db578251829080519060200190620003ca929190620003ef565b5091602001919060010190620003a9565b5b509050620003eb919062000476565b5090565b828054600181600116156101000203166002900490600052602060002090601f016020900481019282601f106200043257805160ff191683800117855562000463565b8280016001018555821562000463579182015b828111156200046257825182559160200191906001019062000445565b5b509050620004729190620004a7565b5090565b620004a491905b80821115620004a05760008181620004969190620004cf565b506001016200047d565b5090565b90565b620004cc91905b80821115620004c8576000816000905550600101620004ae565b5090565b90565b50805460018160011615610100020316600290046000825580601f10620004f7575062000518565b601f016020900490600052602060002090810190620005179190620004a7565b5b50565b6106f7806200052b6000396000f3fe608060405234801561001057600080fd5b506004361061004c5760003560e01c80635c5d625e14610051578063832880e7146100d4578063e942b51614610157578063f3638f78146102a9575b600080fd5b61005961032c565b6040518080602001828103825283818151815260200191508051906020019080838360005b8381101561009957808201518184015260208101905061007e565b50505050905090810190601f1680156100c65780820380516001836020036101000a031916815260200191505b509250505060405180910390f35b6100dc6103ce565b6040518080602001828103825283818151815260200191508051906020019080838360005b8381101561011c578082015181840152602081019050610101565b50505050905090810190601f1680156101495780820380516001836020036101000a031916815260200191505b509250505060405180910390f35b6102a76004803603604081101561016d57600080fd5b810190808035906020019064010000000081111561018a57600080fd5b82018360208201111561019c57600080fd5b803590602001918460018302840111640100000000831117156101be57600080fd5b91908080601f016020809104026020016040519081016040528093929190818152602001838380828437600081840152601f19601f8201169050808301925050505050505091929192908035906020019064010000000081111561022157600080fd5b82018360208201111561023357600080fd5b8035906020019184600183028401116401000000008311171561025557600080fd5b91908080601f016020809104026020016040519081016040528093929190818152602001838380828437600081840152601f19601f820116905080830192505050505050509192919290505050610470565b005b6102b16104f4565b6040518080602001828103825283818151815260200191508051906020019080838360005b838110156102f15780820151818401526020810190506102d6565b50505050905090810190601f16801561031e5780820380516001836020036101000a031916815260200191505b509250505060405180910390f35b606060028054600181600116156101000203166002900480601f0160208091040260200160405190810160405280929190818152602001828054600181600116156101000203166002900480156103c45780601f10610399576101008083540402835291602001916103c4565b820191906000526020600020905b8154815290600101906020018083116103a757829003601f168201915b5050505050905090565b606060018054600181600116156101000203166002900480601f0160208091040260200160405190810160405280929190818152602001828054600181600116156101000203166002900480156104665780601f1061043b57610100808354040283529160200191610466565b820191906000526020600020905b81548152906001019060200180831161044957829003601f168201915b5050505050905090565b8160019080519060200190610486929190610596565b50806002908051906020019061049d929190610596565b506004600560008081548092919060010191905055816104b957fe5b06815481106104c457fe5b90600052602060002001600390805460018160011615610100020316600290046104ef929190610616565b505050565b606060038054600181600116156101000203166002900480601f01602080910402602001604051908101604052809291908181526020018280546001816001161561010002031660029004801561058c5780601f106105615761010080835404028352916020019161058c565b820191906000526020600020905b81548152906001019060200180831161056f57829003601f168201915b5050505050905090565b828054600181600116156101000203166002900490600052602060002090601f016020900481019282601f106105d757805160ff1916838001178555610605565b82800160010185558215610605579182015b828111156106045782518255916020019190600101906105e9565b5b509050610612919061069d565b5090565b828054600181600116156101000203166002900490600052602060002090601f016020900481019282601f1061064f578054855561068c565b8280016001018555821561068c57600052602060002091601f016020900482015b8281111561068b578254825591600101919060010190610670565b5b509050610699919061069d565b5090565b6106bf91905b808211156106bb5760008160009055506001016106a3565b5090565b9056fea265627a7a7231582024bb4c6806e7cd3c4ad0768ff164e212aab0e7ed6c6adaa263d73a802a813b7264736f6c63430005100032",
  "source": "pragma solidity >=0.4.22 <0.9.0;\ncontract MyContract {\n\n    uint256 now = 1;\n    string username;\n    string proof;\n    string next;\n    \n    string[]  nextList = new string[](5);\n\n    constructor() public {\n        username = \"user\";\n        proof = \"myProof\";\n        next = \"A\";\n        nextList = [\"A\",\"B\",\"C\",\"D\",\"E\"];\n    }\n\n\n    function getUser() public view returns(string memory ) {\n        return username;\n    }\n\n    function getProof() public view returns(string memory) {\n        return proof;\n    }\n\n    function getNext() public view returns(string memory) {\n        return next;\n    }\n\n    function set(string memory _username, string memory _proof) public {\n        username = _username;\n        proof = _proof;\n        next = nextList[now++ % 5];\n    }\n}",
  "sourcePath": "/home/xiabee/Desktop/MyContract/contracts/MyContract.sol",
  "compiler": {
    "name": "solc",
    "version": "0.5.16+commit.9c3226ce.Emscripten.clang"
  },
  "schemaVersion": "3.4.1",
  "updatedAt": "2021-08-23T18:54:32.610Z",
  "networkType": "ethereum",
  "devdoc": {
    "methods": {}
  },
  "userdoc": {
    "methods": {}
  }
}