{
  "contractName": "MyContract",
  "abi": [
    {
      "inputs": [],
      "payable": false,
      "stateMutability": "nonpayable",
      "type": "constructor"
    },
    {
      "constant": true,
      "inputs": [],
      "name": "getGradient",
      "outputs": [
        {
          "internalType": "uint256[]",
          "name": "",
          "type": "uint256[]"
        }
      ],
      "payable": false,
      "stateMutability": "view",
      "type": "function"
    },
    {
      "constant": true,
      "inputs": [],
      "name": "getNext",
      "outputs": [
        {
          "internalType": "string",
          "name": "",
          "type": "string"
        }
      ],
      "payable": false,
      "stateMutability": "view",
      "type": "function"
    },
    {
      "constant": true,
      "inputs": [],
      "name": "getUrl",
      "outputs": [
        {
          "internalType": "string",
          "name": "",
          "type": "string"
        }
      ],
      "payable": false,
      "stateMutability": "view",
      "type": "function"
    },
    {
      "constant": true,
      "inputs": [],
      "name": "getNow",
      "outputs": [
        {
          "internalType": "uint256",
          "name": "",
          "type": "uint256"
        }
      ],
      "payable": false,
      "stateMutability": "view",
      "type": "function"
    },
    {
      "constant": false,
      "inputs": [],
      "name": "checkEnd",
      "outputs": [
        {
          "internalType": "bool",
          "name": "",
          "type": "bool"
        }
      ],
      "payable": false,
      "stateMutability": "nonpayable",
      "type": "function"
    },
    {
      "constant": false,
      "inputs": [
        {
          "internalType": "uint256[]",
          "name": "_Gradient",
          "type": "uint256[]"
        },
        {
          "internalType": "string",
          "name": "_url",
          "type": "string"
        }
      ],
      "name": "set",
      "outputs": [],
      "payable": false,
      "stateMutability": "nonpayable",
      "type": "function"
    },
    {
      "constant": false,
      "inputs": [
        {
          "internalType": "string",
          "name": "a",
          "type": "string"
        },
        {
          "internalType": "string",
          "name": "b",
          "type": "string"
        }
      ],
      "name": "hashCompare",
      "outputs": [
        {
          "internalType": "bool",
          "name": "",
          "type": "bool"
        }
      ],
      "payable": false,
      "stateMutability": "nonpayable",
      "type": "function"
    },
    {
      "constant": false,
      "inputs": [
        {
          "internalType": "uint256[]",
          "name": "ave",
          "type": "uint256[]"
        }
      ],
      "name": "setAverage",
      "outputs": [
        {
          "internalType": "uint256[]",
          "name": "",
          "type": "uint256[]"
        }
      ],
      "payable": false,
      "stateMutability": "nonpayable",
      "type": "function"
    }
  ],
  "bytecode": "0x608060405260466000556000546040519080825280602002602001820160405280156200003b5781602001602082028038833980820191505090505b50600290805190602001906200005392919062000719565b50600054604051908082528060200260200182016040528015620000865781602001602082028038833980820191505090505b50600390805190602001906200009e92919062000719565b50600054604051908082528060200260200182016040528015620000d15781602001602082028038833980820191505090505b5060049080519060200190620000e992919062000719565b50601460055560056040519080825280602002602001820160405280156200012657816020015b6060815260200190600190039081620001105790505b50600890805190602001906200013e9291906200076b565b503480156200014c57600080fd5b50600180819055506040518060200160405280600060ff16815250600290600162000179929190620007d2565b50604051806108c0016040528062049acd62ffffff168152602001620ea69862ffffff168152602001620eba8462ffffff1681526020016202717a62ffffff1681526020016207bb2162ffffff1681526020016204b24b62ffffff1681526020016203c29e62ffffff16815260200162014a6162ffffff168152602001620bc76e62ffffff1681526020016205018062ffffff16815260200162083c9f62ffffff1681526020016209386862ffffff16815260200162083b7962ffffff16815260200162026c5762ffffff16815260200162060e5b62ffffff1681526020016208496a62ffffff1681526020016206b3b962ffffff1681526020016209e51362ffffff168152602001620eb8f862ffffff168152602001620ba1a662ffffff168152602001620ad81a62ffffff16815260200162084a9f62ffffff1681526020016195ad62ffffff1681526020016204bba462ffffff168152602001614aa462ffffff168152602001615a0662ffffff1681526020016207392962ffffff168152602001620a76db62ffffff168152602001620e636362ffffff1681526020016201e17e62ffffff16815260200162060c2362ffffff16815260200162070ba162ffffff168152602001620d9f3c62ffffff168152602001620b9f6d62ffffff16815260200162092bba62ffffff168152602001620d0fb662ffffff16815260200162052cc362ffffff1681526020016202f88e62ffffff168152602001620d7c3362ffffff1681526020016205ee3262ffffff1681526020016208033662ffffff1681526020016205566162ffffff168152602001620c063062ffffff168152602001620c0a4762ffffff168152602001620a7e7c62ffffff168152602001620c87f462ffffff168152602001620bfb3c62ffffff1681526020016209839362ffffff168152602001620c1c8462ffffff1681526020016207846562ffffff168152602001620cc4ad62ffffff168152602001620b550062ffffff168152602001620d366462ffffff16815260200162066cf262ffffff1681526020016208c8c562ffffff16815260200161240a62ffffff168152602001620d33a862ffffff168152602001620ed12562ffffff1681526020016201aeb562ffffff16815260200162072adf62ffffff1681526020016202fa0662ffffff168152602001620ad48362ffffff16815260200162019c4e62ffffff168152602001620eb8e162ffffff168152602001620c80ed62ffffff168152602001620ad49e62ffffff1681526020016202d9f162ffffff1681526020016205c52762ffffff1681526020016201bfa062ffffff1681526020016209df6e62ffffff1681525060039060466200056692919062000829565b506040518060a001604052806040518060400160405280600181526020017f410000000000000000000000000000000000000000000000000000000000000081525081526020016040518060400160405280600181526020017f420000000000000000000000000000000000000000000000000000000000000081525081526020016040518060400160405280600181526020017f430000000000000000000000000000000000000000000000000000000000000081525081526020016040518060400160405280600181526020017f440000000000000000000000000000000000000000000000000000000000000081525081526020016040518060400160405280600181526020017f45000000000000000000000000000000000000000000000000000000000000008152508152506008906005620006a992919062000882565b506040518060400160405280600181526020017f410000000000000000000000000000000000000000000000000000000000000081525060079080519060200190620006f7929190620008e9565b506000600660006101000a81548160ff02191690831515021790555062000a9c565b82805482825590600052602060002090810192821562000758579160200282015b82811115620007575782518255916020019190600101906200073a565b5b50905062000767919062000970565b5090565b828054828255906000526020600020908101928215620007bf579160200282015b82811115620007be578251829080519060200190620007ad92919062000998565b50916020019190600101906200078c565b5b509050620007ce919062000a1f565b5090565b82805482825590600052602060002090810192821562000816579160200282015b8281111562000815578251829060ff16905591602001919060010190620007f3565b5b50905062000825919062000970565b5090565b8280548282559060005260206000209081019282156200086f579160200282015b828111156200086e578251829062ffffff169055916020019190600101906200084a565b5b5090506200087e919062000970565b5090565b828054828255906000526020600020908101928215620008d6579160200282015b82811115620008d5578251829080519060200190620008c492919062000998565b5091602001919060010190620008a3565b5b509050620008e5919062000a1f565b5090565b828054600181600116156101000203166002900490600052602060002090601f016020900481019282601f106200092c57805160ff19168380011785556200095d565b828001600101855582156200095d579182015b828111156200095c5782518255916020019190600101906200093f565b5b5090506200096c919062000970565b5090565b6200099591905b808211156200099157600081600090555060010162000977565b5090565b90565b828054600181600116156101000203166002900490600052602060002090601f016020900481019282601f10620009db57805160ff191683800117855562000a0c565b8280016001018555821562000a0c579182015b8281111562000a0b578251825591602001919060010190620009ee565b5b50905062000a1b919062000970565b5090565b62000a4d91905b8082111562000a49576000818162000a3f919062000a50565b5060010162000a26565b5090565b90565b50805460018160011615610100020316600290046000825580601f1062000a78575062000a99565b601f01602090049060005260206000209081019062000a98919062000970565b5b50565b610c0e8062000aac6000396000f3fe608060405234801561001057600080fd5b50600436106100885760003560e01c8063bbe4fd501161005b578063bbe4fd5014610475578063bd5ae2bf14610493578063d6bd8727146104f2578063f3638f781461057557610088565b80630d8a9bba1461008d5780634b084d491461019a5780637e8ecf98146101bc5780638fc8a5c71461030b575b600080fd5b610143600480360360208110156100a357600080fd5b81019080803590602001906401000000008111156100c057600080fd5b8201836020820111156100d257600080fd5b803590602001918460208302840111640100000000831117156100f457600080fd5b919080806020026020016040519081016040528093929190818152602001838360200280828437600081840152601f19601f8201169050808301925050505050505091929192905050506105f8565b6040518080602001828103825283818151815260200191508051906020019060200280838360005b8381101561018657808201518184015260208101905061016b565b505050509050019250505060405180910390f35b6101a261075f565b604051808215151515815260200191505060405180910390f35b610309600480360360408110156101d257600080fd5b81019080803590602001906401000000008111156101ef57600080fd5b82018360208201111561020157600080fd5b8035906020019184602083028401116401000000008311171561022357600080fd5b919080806020026020016040519081016040528093929190818152602001838360200280828437600081840152601f19601f8201169050808301925050505050505091929192908035906020019064010000000081111561028357600080fd5b82018360208201111561029557600080fd5b803590602001918460018302840111640100000000831117156102b757600080fd5b91908080601f016020809104026020016040519081016040528093929190818152602001838380828437600081840152601f19601f82011690508083019250505050505050919291929050505061079e565b005b61045b6004803603604081101561032157600080fd5b810190808035906020019064010000000081111561033e57600080fd5b82018360208201111561035057600080fd5b8035906020019184600183028401116401000000008311171561037257600080fd5b91908080601f016020809104026020016040519081016040528093929190818152602001838380828437600081840152601f19601f820116905080830192505050505050509192919290803590602001906401000000008111156103d557600080fd5b8201836020820111156103e757600080fd5b8035906020019184600183028401116401000000008311171561040957600080fd5b91908080601f016020809104026020016040519081016040528093929190818152602001838380828437600081840152601f19601f82011690508083019250505050505050919291929050505061089f565b604051808215151515815260200191505060405180910390f35b61047d6108ba565b6040518082815260200191505060405180910390f35b61049b6108c4565b6040518080602001828103825283818151815260200191508051906020019060200280838360005b838110156104de5780820151818401526020810190506104c3565b505050509050019250505060405180910390f35b6104fa61091c565b6040518080602001828103825283818151815260200191508051906020019080838360005b8381101561053a57808201518184015260208101905061051f565b50505050905090810190601f1680156105675780820380516001836020036101000a031916815260200191505b509250505060405180910390f35b61057d6109be565b6040518080602001828103825283818151815260200191508051906020019080838360005b838110156105bd5780820151818401526020810190506105a2565b50505050905090810190601f1680156105ea5780820380516001836020036101000a031916815260200191505b509250505060405180910390f35b60606106d360078054600181600116156101000203166002900480601f0160208091040260200160405190810160405280929190818152602001828054600181600116156101000203166002900480156106935780601f1061066857610100808354040283529160200191610693565b820191906000526020600020905b81548152906001019060200180831161067657829003601f168201915b50505050506040518060400160405280600181526020017f410000000000000000000000000000000000000000000000000000000000000081525061089f565b156107595781600390805190602001906106ee929190610a60565b50600160008154809291906001019190505550600380548060200260200160405190810160405280929190818152602001828054801561074d57602002820191906000526020600020905b815481526020019060010190808311610739575b5050505050905061075a565b5b919050565b60006005546001541415610789576001600660006101000a81548160ff0219169083151502179055505b600660009054906101000a900460ff16905090565b6000548251146107c4576001600660006101000a81548160ff0219169083151502179055505b80600990805190602001906107da929190610aad565b5081600290805190602001906107f1929190610a60565b5060008090505b6000548110156108475782818151811061080e57fe5b60200260200101516004828154811061082357fe5b906000526020600020016000828254019250508190555080806001019150506107f8565b506008600560016000815480929190600101919050558161086457fe5b068154811061086f57fe5b906000526020600020016007908054600181600116156101000203166002900461089a929190610b2d565b505050565b60008180519060200120838051906020012014905092915050565b6000600154905090565b6060600280548060200260200160405190810160405280929190818152602001828054801561091257602002820191906000526020600020905b8154815260200190600101908083116108fe575b5050505050905090565b606060098054600181600116156101000203166002900480601f0160208091040260200160405190810160405280929190818152602001828054600181600116156101000203166002900480156109b45780601f10610989576101008083540402835291602001916109b4565b820191906000526020600020905b81548152906001019060200180831161099757829003601f168201915b5050505050905090565b606060078054600181600116156101000203166002900480601f016020809104026020016040519081016040528092919081815260200182805460018160011615610100020316600290048015610a565780601f10610a2b57610100808354040283529160200191610a56565b820191906000526020600020905b815481529060010190602001808311610a3957829003601f168201915b5050505050905090565b828054828255906000526020600020908101928215610a9c579160200282015b82811115610a9b578251825591602001919060010190610a80565b5b509050610aa99190610bb4565b5090565b828054600181600116156101000203166002900490600052602060002090601f016020900481019282601f10610aee57805160ff1916838001178555610b1c565b82800160010185558215610b1c579182015b82811115610b1b578251825591602001919060010190610b00565b5b509050610b299190610bb4565b5090565b828054600181600116156101000203166002900490600052602060002090601f016020900481019282601f10610b665780548555610ba3565b82800160010185558215610ba357600052602060002091601f016020900482015b82811115610ba2578254825591600101919060010190610b87565b5b509050610bb09190610bb4565b5090565b610bd691905b80821115610bd2576000816000905550600101610bba565b5090565b9056fea265627a7a723158207aadd5168fed6fd66233ea06581bfcfc274ad08e1356b3763711291f079451eb64736f6c63430005100032",
  "source": "pragma solidity >=0.4.22 <0.9.0;\ncontract MyContract {\n    uint mod = 70;\n    uint roundNow;\n\n    uint[] Gradient = new uint[](mod);\n    // w[10][4],v[3][10] in the training model\n\n    \n    uint[] average = new uint[](mod);\n    uint[] totalGra = new uint[](mod);\n    \n    uint totalRound = 20;\n    bool isEnd;\n    \n    string next;\n    string[]  nextList = new string[](5);\n    string url;\n\n    constructor() public {\n        roundNow = 1;\n        Gradient = [0];\n        // Gradient with random number\n        \n        average = [301773,960152,965252,160122,506657,307787,246430,84577,771950,328064,539807,604264,539513,158807,396891,543082,439225,648467,964856,762278,710682,543391,38317,310180,19108,23046,473385,685787,942947,123262,396323,461729,892732,761709,601018,855990,339139,194702,883763,388658,525110,349793,788016,789063,687740,821236,785212,623507,793732,492645,836781,742656,865892,421106,575685,9226,865192,971045,110261,469727,195078,709763,105550,964833,819437,709790,186865,378151,114592,647022];\n\n        nextList = [\"A\",\"B\",\"C\",\"D\",\"E\"];\n        next = \"A\";\n        isEnd = false;\n    }\n\n\n    function getGradient() public view returns(uint[] memory) {\n        return Gradient;\n    }\n\n\n    function getNext() public view returns(string memory) {\n        return next;\n    }\n\n    function getUrl() public view returns(string memory) {\n        return url;\n    }\n\n    function getNow() public view returns (uint) {\n        return roundNow;\n    }\n\n    function checkEnd() public returns (bool) {\n        if(roundNow == totalRound)\n            isEnd = true;\n        return isEnd;\n    }\n\n\n    function set(uint[] memory _Gradient, string memory _url) public {\n        if(_Gradient.length != mod) {\n            isEnd = true;\n            // Wrong number of gradient\n        }\n        url = _url;\n        Gradient = _Gradient;\n        for(uint i = 0; i < mod; i++) {\n            totalGra[i] += _Gradient[i];\n        }\n        next = nextList[roundNow++ % 5];\n    }\n\n    \n\n    function hashCompare(string memory a, string memory b) public returns (bool) {\n        return keccak256(bytes(a)) == keccak256(bytes(b));\n    }\n    // To judge if a == b\n\n    function setAverage(uint[] memory ave) public returns (uint[] memory) {\n        if(hashCompare(next, \"A\")) {\n            average = ave;\n            roundNow++;\n            return average;\n        }\n    }\n\n\n}",
  "sourcePath": "/home/xiabee/Desktop/Final-Architecture/MyContract/contracts/MyContract.sol",
  "compiler": {
    "name": "solc",
    "version": "0.5.16+commit.9c3226ce.Emscripten.clang"
  },
  "schemaVersion": "3.4.1",
  "updatedAt": "2021-08-25T00:17:35.893Z",
  "networkType": "ethereum",
  "devdoc": {
    "methods": {}
  },
  "userdoc": {
    "methods": {}
  }
}