{
  "contractName": "MyContract",
  "abi": [
    {
      "inputs": [],
      "payable": false,
      "stateMutability": "nonpayable",
      "type": "constructor"
    },
    {
      "constant": true,
      "inputs": [],
      "name": "getGradient",
      "outputs": [
        {
          "internalType": "uint256",
          "name": "",
          "type": "uint256"
        }
      ],
      "payable": false,
      "stateMutability": "view",
      "type": "function"
    },
    {
      "constant": true,
      "inputs": [],
      "name": "getEncrypted",
      "outputs": [
        {
          "internalType": "string",
          "name": "",
          "type": "string"
        }
      ],
      "payable": false,
      "stateMutability": "view",
      "type": "function"
    },
    {
      "constant": true,
      "inputs": [],
      "name": "getNext",
      "outputs": [
        {
          "internalType": "string",
          "name": "",
          "type": "string"
        }
      ],
      "payable": false,
      "stateMutability": "view",
      "type": "function"
    },
    {
      "constant": false,
      "inputs": [
        {
          "internalType": "uint256",
          "name": "_Gradient",
          "type": "uint256"
        },
        {
          "internalType": "string",
          "name": "_Encrypted",
          "type": "string"
        }
      ],
      "name": "set",
      "outputs": [],
      "payable": false,
      "stateMutability": "nonpayable",
      "type": "function"
    },
    {
      "constant": false,
      "inputs": [
        {
          "internalType": "string",
          "name": "a",
          "type": "string"
        },
        {
          "internalType": "string",
          "name": "b",
          "type": "string"
        }
      ],
      "name": "hashCompare",
      "outputs": [
        {
          "internalType": "bool",
          "name": "",
          "type": "bool"
        }
      ],
      "payable": false,
      "stateMutability": "nonpayable",
      "type": "function"
    },
    {
      "constant": false,
      "inputs": [
        {
          "internalType": "uint256",
          "name": "Rand",
          "type": "uint256"
        }
      ],
      "name": "setTotalRand",
      "outputs": [
        {
          "internalType": "uint256",
          "name": "",
          "type": "uint256"
        }
      ],
      "payable": false,
      "stateMutability": "nonpayable",
      "type": "function"
    },
    {
      "constant": false,
      "inputs": [],
      "name": "clear",
      "outputs": [],
      "payable": false,
      "stateMutability": "nonpayable",
      "type": "function"
    }
  ],
  "bytecode": "0x608060405260056040519080825280602002602001820160405280156200003b57816020015b6060815260200190600190039081620000255790505b50600890805190602001906200005392919062000289565b503480156200006157600080fd5b50600160008190555060006002819055506000600581905550600060068190555060006004819055506040518060400160405280600b81526020017f6d79456e6372797074656400000000000000000000000000000000000000000081525060039080519060200190620000d7929190620002f0565b506040518060a001604052806040518060400160405280600181526020017f410000000000000000000000000000000000000000000000000000000000000081525081526020016040518060400160405280600181526020017f420000000000000000000000000000000000000000000000000000000000000081525081526020016040518060400160405280600181526020017f430000000000000000000000000000000000000000000000000000000000000081525081526020016040518060400160405280600181526020017f440000000000000000000000000000000000000000000000000000000000000081525081526020016040518060400160405280600181526020017f450000000000000000000000000000000000000000000000000000000000000081525081525060089060056200021a92919062000377565b506040518060400160405280600181526020017f41000000000000000000000000000000000000000000000000000000000000008152506007908051906020019062000268929190620002f0565b5060018060006101000a81548160ff0219169083151502179055506200050a565b828054828255906000526020600020908101928215620002dd579160200282015b82811115620002dc578251829080519060200190620002cb929190620003de565b5091602001919060010190620002aa565b5b509050620002ec919062000465565b5090565b828054600181600116156101000203166002900490600052602060002090601f016020900481019282601f106200033357805160ff191683800117855562000364565b8280016001018555821562000364579182015b828111156200036357825182559160200191906001019062000346565b5b50905062000373919062000496565b5090565b828054828255906000526020600020908101928215620003cb579160200282015b82811115620003ca578251829080519060200190620003b9929190620003de565b509160200191906001019062000398565b5b509050620003da919062000465565b5090565b828054600181600116156101000203166002900490600052602060002090601f016020900481019282601f106200042157805160ff191683800117855562000452565b8280016001018555821562000452579182015b828111156200045157825182559160200191906001019062000434565b5b50905062000461919062000496565b5090565b6200049391905b808211156200048f5760008181620004859190620004be565b506001016200046c565b5090565b90565b620004bb91905b80821115620004b75760008160009055506001016200049d565b5090565b90565b50805460018160011615610100020316600290046000825580601f10620004e6575062000507565b601f01602090049060005260206000209081019062000506919062000496565b5b50565b6108c4806200051a6000396000f3fe608060405234801561001057600080fd5b506004361061007d5760003560e01c80638fc8a5c71161005b5780638fc8a5c7146101d45780639979c1401461033e578063bd5ae2bf14610380578063f3638f781461039e5761007d565b80632633745b1461008257806352efea6e14610105578063643719771461010f575b600080fd5b61008a610421565b6040518080602001828103825283818151815260200191508051906020019080838360005b838110156100ca5780820151818401526020810190506100af565b50505050905090810190601f1680156100f75780820380516001836020036101000a031916815260200191505b509250505060405180910390f35b61010d6104c3565b005b6101d26004803603604081101561012557600080fd5b81019080803590602001909291908035906020019064010000000081111561014c57600080fd5b82018360208201111561015e57600080fd5b8035906020019184600183028401116401000000008311171561018057600080fd5b91908080601f016020809104026020016040519081016040528093929190818152602001838380828437600081840152601f19601f8201169050808301925050505050505091929192905050506104dd565b005b610324600480360360408110156101ea57600080fd5b810190808035906020019064010000000081111561020757600080fd5b82018360208201111561021957600080fd5b8035906020019184600183028401116401000000008311171561023b57600080fd5b91908080601f016020809104026020016040519081016040528093929190818152602001838380828437600081840152601f19601f8201169050808301925050505050505091929192908035906020019064010000000081111561029e57600080fd5b8201836020820111156102b057600080fd5b803590602001918460018302840111640100000000831117156102d257600080fd5b91908080601f016020809104026020016040519081016040528093929190818152602001838380828437600081840152601f19601f82011690508083019250505050505050919291929050505061057c565b604051808215151515815260200191505060405180910390f35b61036a6004803603602081101561035457600080fd5b8101908080359060200190929190505050610597565b6040518082815260200191505060405180910390f35b6103886106b7565b6040518082815260200191505060405180910390f35b6103a66106c1565b6040518080602001828103825283818151815260200191508051906020019080838360005b838110156103e65780820151818401526020810190506103cb565b50505050905090810190601f1680156104135780820380516001836020036101000a031916815260200191505b509250505060405180910390f35b606060038054600181600116156101000203166002900480601f0160208091040260200160405190810160405280929190818152602001828054600181600116156101000203166002900480156104b95780601f1061048e576101008083540402835291602001916104b9565b820191906000526020600020905b81548152906001019060200180831161049c57829003601f168201915b5050505050905090565b600060058190555060006006819055506000600481905550565b6000600160006101000a81548160ff02191690831515021790555081600281905550816005600082825401925050819055508060039080519060200190610525929190610763565b5060086005600080815480929190600101919050558161054157fe5b068154811061054c57fe5b90600052602060002001600790805460018160011615610100020316600290046105779291906107e3565b505050565b60008180519060200120838051906020012014905092915050565b600061067260078054600181600116156101000203166002900480601f0160208091040260200160405190810160405280929190818152602001828054600181600116156101000203166002900480156106325780601f1061060757610100808354040283529160200191610632565b820191906000526020600020905b81548152906001019060200180831161061557829003601f168201915b50505050506040518060400160405280600181526020017f410000000000000000000000000000000000000000000000000000000000000081525061057c565b156106b15781600681905550600654600560008282540392505081905550600880549050600554816106a057fe5b0460048190555060045490506106b2565b5b919050565b6000600254905090565b606060078054600181600116156101000203166002900480601f0160208091040260200160405190810160405280929190818152602001828054600181600116156101000203166002900480156107595780601f1061072e57610100808354040283529160200191610759565b820191906000526020600020905b81548152906001019060200180831161073c57829003601f168201915b5050505050905090565b828054600181600116156101000203166002900490600052602060002090601f016020900481019282601f106107a457805160ff19168380011785556107d2565b828001600101855582156107d2579182015b828111156107d15782518255916020019190600101906107b6565b5b5090506107df919061086a565b5090565b828054600181600116156101000203166002900490600052602060002090601f016020900481019282601f1061081c5780548555610859565b8280016001018555821561085957600052602060002091601f016020900482015b8281111561085857825482559160010191906001019061083d565b5b509050610866919061086a565b5090565b61088c91905b80821115610888576000816000905550600101610870565b5090565b9056fea265627a7a72315820a9ff1eaa9edc1a4186de2625b5320f6c3f79e1c6b473c85487a7fade3ddaf57364736f6c63430005100032",
  "source": "pragma solidity >=0.4.22 <0.9.0;\ncontract MyContract {\n\n    uint now;\n    bool isFirst;\n    uint Gradient;\n    string Encrypted;\n    \n    uint average;\n    uint totalGra;\n    uint totalRand;\n\n    \n    string next;\n    string[]  nextList = new string[](5);\n\n    constructor() public {\n        now = 1;\n        Gradient = 0;\n        totalGra = 0;\n        // Gradient with random number\n        totalRand = 0;\n        // Total of random number\n        average = 0;\n        Encrypted = \"myEncrypted\"; \n        // To reveive encrypted P\n        nextList = [\"A\",\"B\",\"C\",\"D\",\"E\"];\n        next = \"A\";\n        isFirst = true;\n    }\n\n\n    function getGradient() public view returns(uint) {\n        return Gradient;\n    }\n\n    function getEncrypted() public view returns(string memory) {\n        return Encrypted;\n    }\n\n    function getNext() public view returns(string memory) {\n        return next;\n    }\n\n    function set(uint _Gradient, string memory _Encrypted) public {\n        isFirst = false;\n        Gradient = _Gradient;\n        totalGra += _Gradient;\n        Encrypted = _Encrypted;\n        next = nextList[now++ % 5];\n    }\n\n    function hashCompare(string memory a, string memory b) public returns (bool) {\n        return keccak256(bytes(a)) == keccak256(bytes(b));\n    }\n    // To judge if a == b\n\n    function setTotalRand(uint Rand) public returns (uint){\n        if(hashCompare(next, \"A\")){\n            totalRand = Rand;\n            totalGra -= totalRand;\n            // calc the real Gradient\n            average = totalGra / nextList.length;\n            return average;\n        }\n    }\n\n    function clear() public{\n        totalGra = 0;\n        totalRand = 0;\n        average = 0;\n    }\n}",
  "sourcePath": "/home/xiabee/Desktop/Final-Architecture/MyContract/contracts/MyContract.sol",
  "compiler": {
    "name": "solc",
    "version": "0.5.16+commit.9c3226ce.Emscripten.clang"
  },
  "schemaVersion": "3.4.1",
  "updatedAt": "2021-08-24T09:07:14.776Z",
  "networkType": "ethereum",
  "devdoc": {
    "methods": {}
  },
  "userdoc": {
    "methods": {}
  }
}